:020000040000FA
:100000000C9434000C9451000C9451000C94510049
:100010000C9451000C9451000C9451000C9451001C
:100020000C9451000C9451000C9451000C9451000C
:100030000C9451000C9451000C9451000C945100FC
:100040000C94D0010C9451000C9450020C9451006B
:100050000C9427020C9451000C9451000C94510004
:100060000C9451000C94510011241FBECFEFD8E026
:10007000DEBFCDBF21E0ACE2B1E001C01D92A23BEA
:10008000B207E1F711E0A0E0B1E0E4E7F0E102C07F
:1000900005900D92AC32B107D9F70E9482020C9400
:1000A00038080C9400009091AD018091AC01981734
:1000B00081F0E091AC01F0E0E459FE4F8081909135
:1000C000AC019F5F9093AC01903420F01092AC0192
:1000D00008958FEF08958091C00085FFFCCF909127
:1000E0006B0180916A01981789F0E0916A01F0E054
:1000F000E65BFE4F908180916A018F5F80936A0179
:10010000803210F010926A019093C6000895909189
:100110006B019F31C8F490916B019F5F292F30E0F4
:100120002F5F3F4F40916A0142171306D9F3209188
:100130006A01921741F0E0916B01F0E0E65BFE4F3F
:10014000808390936B01089590E0E8CF3FB7F894D7
:100150008091310190913201A0913301B09134012D
:1001600026B5A89B05C02F3F19F00196A11DB11D12
:100170003FBFBA2FA92F982F8827BC01CD01620F4E
:10018000711D811D911D42E0660F771F881F991F09
:100190004A95D1F708952FB7F89460912D01709189
:1001A0002E0180912F01909130012FBF08950F9360
:1001B0001F93CF93DF93EC0188819981009759F0C9
:1001C0002A813B812617370730F081E0DF91CF91FC
:1001D0001F910F9108958B016F5F7F4F0E946B07F6
:1001E000009759F0998388831B830A832C813D8172
:1001F000232B59F7FC011082E8CF80E0E7CFEF9284
:10020000FF920F931F93CF93DF9341155105B1F0E8
:100210007B01EC010C811D81040F151FB8010E94A8
:10022000D700882361F0288139818C819D81B701B5
:10023000820F931F0E9431081D830C8381E0DF91A0
:10024000CF911F910F91FF90EF900895EF92FF9241
:100250000F931F93CF93DF9300D000D000D01F9255
:10026000CDB7DEB77C01CB014AE08E010F5F1F4F97
:10027000B8010E94BD05F80101900020E9F731970F
:10028000AF01401B510BB801C7010E94FF00279628
:100290000FB6F894DEBF0FBECDBFDF91CF911F9197
:1002A0000F91FF90EF900895EF92FF920F931F939D
:1002B000CF93DF93EC017B018A01BA010E94D70042
:1002C00028813981811114C02115310519F0C90126
:1002D0000E94E206198218821D821C821B821A82E9
:1002E000CE01DF91CF911F910F91FF90EF90089574
:1002F0001D830C83B701C9010E943108F1CFFF9221
:100300000F931F93CF93DF9300D000D000D0CDB7D1
:10031000DEB71A8219821C821B821E821D82FC019A
:10032000608171816115710531F044815581CE0183
:1003300001960E945401FD8010E000E00F15C0F40A
:100340008D819E810817190720F4E981FA81309781
:1003500061F410924901E9E4F1E080810E94870094
:100360000E946B000F5F1F4FE9CFE00FF11FF5CF29
:1003700089819A810E94E2068DE00E9487008AE0CE
:100380000E9487000E946B0026960FB6F894DEBF8D
:100390000FBECDBFDF91CF911F910F91FF900895B8
:1003A0001F920F920FB60F9211248F939F93AF93CA
:1003B000BF9380912D0190912E01A0912F01B091BA
:1003C00030010196A11DB11D80932D0190932E0146
:1003D000A0932F01B093300180912C0193E0980FEE
:1003E0009D37F0F490932C0180913101909132016E
:1003F000A0913301B09134010196A11DB11D8093EC
:10040000310190933201A0933301B0933401BF9135
:10041000AF919F918F910F900FBE0F901F901895E5
:100420008A5780932C0180912D0190912E01A091EB
:100430002F01B09130010196A11DB11D80932D01B6
:1004400090932E01A0932F01B0933001CDCF1F9236
:100450000F920FB60F9211248F939F93EF93FF93F8
:1004600090916B0180916A01981789F0E0916A017F
:10047000F0E0E65BFE4F908180916A018F5F809390
:100480006A01803210F010926A019093C600FF91C9
:10049000EF919F918F910F900FBE0F901F90189525
:1004A0001F920F920FB60F9211242F938F939F9349
:1004B000EF93FF938091C00082FF0CC08091C60033
:1004C000FF91EF919F918F912F910F900FBE0F9001
:1004D0001F9018959091C6008091AD018F3380F4E4
:1004E0008091AD018F5F2091AC01281749F3E09115
:1004F000AD01F0E0E459FE4F90838093AD01E0CF71
:1005000080E0F1CFCF93DF93CDB7DEB72C970FB656
:10051000F894DEBF0FBECDBFF89482E880937A00D6
:1005200083E084BD85BD80916E00816080936E0004
:1005300081E0809380009BE0909381008093B000E5
:1005400084E08093B1001092C1007894559A5D9830
:1005500084B58F7D84BD5D9A1092C50081E2809341
:10056000C40082E08093C00088ED8093C10086E0E3
:100570008093C2001092AC011092AD0110926A01FA
:1005800010926B01569A5E9884B58F7784BD5E9801
:1005900054985C98539A5B98529A5A983B9A88B1AF
:1005A00088B93A9A88B188B9399A4798389A46985A
:1005B0008091B0008F7D8093B0005B985A984398EB
:1005C00042984198409857985F988FB7F89498E16F
:1005D0009093600098E2909360008FBF5AE0652E80
:1005E000712C01E010E062E0862E912C89B190E040
:1005F000880F892F881F990B892B09F4A6C01093A7
:100600000501009304010E94CB00C0903501D090F9
:100610003601E0903701F09038016C197D098E09A0
:100620009F09693E73408105910508F413C118863E
:100630001F821A8619861C861B8641E050E066E2FE
:1006400071E0CE0107960E94540132E0C32E31E0E2
:10065000D32EF601B12CA12C80E021913191A20E74
:10066000B31E8F5F8F30C9F7F12CE12C8EE0E816B6
:10067000F10409F06FC0B501CE0107960E94260172
:1006800041E050E068E271E0CE0107960E94FF0071
:10069000FFEFEF1AFF0A22E0C20ED11C8FE0E8162E
:1006A000F10421F71A8219821C821B821E821D828C
:1006B0006F8178856115710531F04B855C85CE01C0
:1006C00001960E945401CE0101960E947F0189810A
:1006D0009A810E94E2068091AD019091AC01891B44
:1006E0008F7309F429C10E94CB005B016C01212C9E
:1006F000312CF12CE12C0E94CB006A197B098C096A
:100700009D09643671058105910508F015C1809138
:10071000AD019091AC01891B8F7369F30E94CB00EE
:100720005B016C019091AD018091AC019817F1F0E3
:10073000E091AC01F0E0E459FE4F80818432B1F4E5
:100740000E94530022242394D6CF109205011092C8
:10075000040159CFF60160817181CE0107960E9494
:10076000260141E050E06AE271E08ECF222009F4D8
:10077000DEC09091AD018091AC019817F1F0E0914D
:10078000AC01F0E0E459FE4F80818032B1F4E32DFA
:10079000F0E0EE0FFF1F81E090E08C0F9D1FE80F4F
:1007A000F91FC701B3010E941E0671836083339451
:1007B0000E945300222423949CCF9091AD018091FC
:1007C000AC01981709F4A4C0E091AC01F0E0E45941
:1007D000FE4F80818B3309F09BC0E32DF0E0EE0FDC
:1007E000FF1F81E090E08C0F9D1FE80FF91FC701EC
:1007F000B3010E941E06718360830E945300109310
:1008000007010093060129813A818B819C81BC01FB
:10081000620F731F4D815E816417750741F4309339
:1008200009012093080190930B0180930A018F81A5
:1008300098850E94E2060FB6F894DEBF0FBECDBFCA
:100840000E94CB006093350170933601809337018D
:10085000909338018091060190910701019709F06A
:1008600070C00E94CB006093390170933A0180936D
:100870003B0190933C0180910201909103018130F2
:10088000910509F446C108F4AEC08230910509F41F
:10089000D7C0039709F43DC18091040190910501EF
:1008A000019709F03BC190920301809202014C9B99
:1008B0004BC110931701009316018091080190918C
:1008C00009018E30910509F445C18534910509F47B
:1008D00040C10D9731F48091B0008F7D8093B000BE
:1008E0005B981092090110920801809148018111D2
:1008F00038C138984698409AF1E0F0934801A8959D
:1009000080E090E0892B09F471CE0E9400006ECE49
:100910000E945300082E000C990BC0978E0D9F1D4E
:10092000EAE0E89F7001E99FF00C11240BCF1092D0
:10093000AC011092AD01DFCE1092070110920601BA
:1009400076CFE0900201F09003010E94CB0020914D
:10095000390130913A0140913B0150913C01621BB9
:10096000730B840B950B613177428105910508F477
:1009700082CF22E0E216F10409F47DCF80911401C8
:1009800090911501892B09F06CCF84B58F7D84BDC2
:100990005D980E94A6001B012C0184EFC82EDD2467
:1009A000D394E12CF12C0E94A600621973098409EA
:1009B0009509683E734081059105A8F3F1E0CF1ACF
:1009C000D108E108F10828EE220E23E0321E411C76
:1009D000511CC114D104E104F10429F784B58F7DC1
:1009E00084BD5D9A3ECF0E94CB00C0903E01D09066
:1009F0003F01E0904001F09041016C197D098E09A2
:100A00009F09613273408105910508F445CF8091BB
:100A10003D01F1E08F2780933D0194B59F7794BD10
:100A2000882361F05E9A0E94CB0060933E01709330
:100A30003F0180934001909341012ECF5E98F3CF08
:100A40000E94CB00C0904401D0904501E090460147
:100A5000F09047016C197D098E099F09693C710569
:100A600081059105A0F180914301811130C00E9460
:100A7000CB006093440170934501809346019093AD
:100A800047018091420121E082278093420194B581
:100A90009F7794BD8823C9F05E9A80910001909160
:100AA000010120914201211105C00197909301019C
:100AB000809300018091000190910101892B09F040
:100AC000EBCE81E080934301E7CE5E98E6CF0E94B3
:100AD000CB006C197D098E099F09693E7340810521
:100AE000910508F4D9CE80914301882309F4D4CE2E
:100AF0000E94CB00609344017093450180934601AE
:100B0000909347011092430190920101809200015D
:100B1000C3CE84B58F7784BD5E9ABECE8091060128
:100B200090910701019731F0809114019091150186
:100B3000019729F41093030100930201B8CE10929B
:100B4000030110920201B3CE109217011092160108
:100B5000B4CEFFCF8091B0008F7D8093B0005B9AC0
:100B6000C0CE309905C01093150100931401C7CE73
:100B70001092150110921401C2CEBB27FB0155271C
:100B8000AA27880F991FAA1FA41710F0A41B8395EA
:100B90005051B9F7A05DAA3308F0A95DA193009761
:100BA00079F7B111B1931192CB010C94D705DC0107
:100BB000FC01672F71917723E1F7329704C07C9194
:100BC0006D9370836291AE17BF07C8F308952F929B
:100BD0003F924F925F926F927F928F929F92AF92CD
:100BE000BF92CF92DF92EF92FF920F931F93CF931A
:100BF000DF93CDB7DEB7CA1BDB0B0FB6F894DEBFB1
:100C00000FBECDBF09942A88398848885F846E84D6
:100C10007D848C849B84AA84B984C884DF80EE8020
:100C2000FD800C811B81AA81B981CE0FD11D0FB629
:100C3000F894DEBF0FBECDBFED01089597FB072EE0
:100C400016F4009407D077FD09D00E94320607FC05
:100C500005D03EF4909581959F4F089570956195CC
:100C60007F4F0895AA1BBB1B51E107C0AA1FBB1FE2
:100C7000A617B70710F0A61BB70B881F991F5A9528
:100C8000A9F780959095BC01CD0108950F931F930E
:100C9000CF93DF938230910510F482E090E0E091F1
:100CA000B001F091B10130E020E0B0E0A0E0309779
:100CB00099F42115310509F44AC0281B390B243059
:100CC0003105D8F58A819B816115710589F1FB0198
:100CD00093838283FE0111C040815181028113817F
:100CE00048175907E0F04817590799F4109761F031
:100CF00012960C93129713961C933296CF01DF91A4
:100D0000CF911F910F9108950093B0011093B101FD
:100D1000F4CF2115310551F04217530738F0A901DE
:100D2000DB019A01BD01DF01F801C1CFEF01F9CF6D
:100D30009093B1018093B001CDCFFE01E20FF31F7C
:100D4000819391932250310939832883D7CF209101
:100D5000AE013091AF01232B41F42091220130915B
:100D600023013093AF012093AE01209120013091F7
:100D700021012115310541F42DB73EB740912401E1
:100D800050912501241B350BE091AE01F091AF018C
:100D9000E217F307A0F42E1B3F0B2817390778F052
:100DA000AC014E5F5F4F2417350748F04E0F5F1FB1
:100DB0005093AF014093AE01819391939FCFF0E0A8
:100DC000E0E09CCFCF93DF930097E9F0FC013297EE
:100DD00013821282A091B001B091B101ED0130E017
:100DE00020E01097A1F420813181820F931F209180
:100DF000AE013091AF012817390709F061C0F093B7
:100E0000AF01E093AE01DF91CF910895EA01CE17D3
:100E1000DF07E8F54A815B819E0141155105B1F775
:100E2000E901FB83EA8349915991C40FD51FEC175F
:100E3000FD0761F4808191810296840F951FE9017D
:100E400099838883828193819B838A83F0E0E0E0A9
:100E500012968D919C9113970097B9F52D913C9125
:100E60001197CD010296820F931F2091AE01309110
:100E7000AF012817390739F6309751F51092B101B3
:100E80001092B001B093AF01A093AE01BCCFD38359
:100E9000C28340815181840F951FC817D90761F41F
:100EA0004E5F5F4F88819981480F591F518340835E
:100EB0008A819B81938382832115310509F0B0CF0C
:100EC000F093B101E093B0019ECFFD01DC01C0CFF2
:100ED00013821282D7CFB0E0A0E0E1E7F7E00C94F4
:100EE000E9058C01009751F4CB010E9446068C0164
:100EF000C801CDB7DEB7E0E10C940506FC01E60FB2
:100F0000F71F9C0122503109E217F30708F49DC036
:100F1000D901CD91DC911197C617D70798F0C5304C
:100F2000D10530F3CE0104978617970708F3C61B47
:100F3000D70B2297C193D1936D937C93CF010E94DD
:100F4000E206D6CF5B01AC1ABD0A4C018C0E9D1E89
:100F5000A091B001B091B101512C412CF12CE12CA8
:100F6000109731F58091AE019091AF0188159905E8
:100F700009F05CC04616570608F058C08091200161
:100F800090912101009741F48DB79EB740912401C3
:100F900050912501841B950BE817F90708F055C0FF
:100FA000F093AF01E093AE01F90171836083A0CFAC
:100FB0008D919C91119712966C90129713967C903C
:100FC0001397A815B90559F56C0142E0C40ED11C60
:100FD000CA14DB0420F1AC014A195B09DA0112964C
:100FE000159780F06282738251834083D9016D939B
:100FF0007C93E114F10471F0D7011396FC93EE9306
:10100000129776CF22968C0F9D1FF90191838083D2
:10101000F301EFCFF093B101E093B00169CF48162F
:10102000590608F42C017D01D3019ACFCB010E940F
:1010300046067C01009749F0AE01B8010E942808DD
:10104000C8010E94E206870153CF10E000E050CFB4
:10105000FB01DC0102C001900D9241505040D8F7D5
:101060000895FB01DC0101900D920020E1F7089545
:10107000F894FFCF02000000000000000000000014
:101080000000000000000000000000000000000060
:10109000640000000000B201800024003B0020003A
:107800000C94343C0C94513C0C94513C0C94513CE1
:107810000C94513C0C94513C0C94513C0C94513CB4
:107820000C94513C0C94513C0C94513C0C94513CA4
:107830000C94513C0C94513C0C94513C0C94513C94
:107840000C94513C0C94513C0C94513C0C94513C84
:107850000C94513C0C94513C0C94513C0C94513C74
:107860000C94513C0C94513C11241FBECFEFD8E036
:10787000DEBFCDBF11E0A0E0B1E0ECE9FFE702C060
:1078800005900D92A230B107D9F712E0A2E0B1E065
:1078900001C01D92AD30B107E1F70E942D3D0C945F
:1078A000CC3F0C94003C982F959595959595959582
:1078B000905D8F708A307CF0282F295A8091C0000B
:1078C00085FFFCCF9093C6008091C00085FFFCCF60
:1078D0002093C6000895282F205DF0CF982F809127
:1078E000C00085FFFCCF9093C6000895EF92FF92F1
:1078F0000F931F93EE24FF2487018091C00087FD22
:1079000017C00894E11CF11C011D111D81E4E8164B
:1079100082E4F8068FE0080780E0180770F3E09132
:107920000401F091050109958091C00087FFE9CF1E
:107930008091C6001F910F91FF90EF9008950E94D3
:10794000763C982F8091C00085FFFCCF9093C600B5
:1079500091362CF490330CF09053892F089597555D
:10796000892F08951F930E949F3C182F0E949F3CCF
:107970001295107F810F1F9108951F93182F882350
:1079800021F00E94763C1150E1F71F9108951F935A
:10799000182F0E94763C803249F0809103018F5F5E
:1079A000809303018530C1F01F9108958091C0003C
:1079B00085FFFCCF84E18093C6008091C00085FFE5
:1079C000FCCF1093C6008091C00085FFFCCF80E102
:1079D0008093C6001F910895E0910401F091050184
:1079E00009951F9108950E94763C803241F0809164
:1079F00003018F5F80930301853081F008958091AA
:107A0000C00085FFFCCF84E18093C6008091C00058
:107A100085FFFCCF80E18093C6000895E0910401CA
:107A2000F09105010995089540E951E08823A1F0FE
:107A30002D9A28EE33E0FA013197F1F721503040CA
:107A4000D1F72D9828EE33E0FA013197F1F7215064
:107A50003040D1F7815061F708953F924F925F9285
:107A60006F927F928F929F92AF92BF92CF92DF924E
:107A7000EF92FF920F931F93CF93DF93000080E16B
:107A80008093C4001092C50088E18093C10086E015
:107A90008093C2005098589A259A81E00E94143D24
:107AA00024E1F22E9EE1E92E85E9D82E0FE0C02ECA
:107AB00010E1B12EAA24A394B1E49B2EA6E58A2E50
:107AC000F2E57F2EE0E26E2E79E4572E63E5462E36
:107AD00050E5352E0E94763C8033B1F18133B9F107
:107AE000803409F46FC0813409F476C0823409F41B
:107AF00085C0853409F488C0803531F1823521F1A3
:107B0000813511F1853509F485C0863509F48DC0BC
:107B1000843609F496C0843709F403C1853709F423
:107B200072C1863709F466C0809103018F5F80932C
:107B30000301853079F6E0910401F0910501099582
:107B40000E94763C803351F60E94F33CC3CF0E94E2
:107B5000763C803249F78091C00085FFFCCFF092DF
:107B6000C6008091C00085FFFCCF9092C600809136
:107B7000C00085FFFCCF8092C6008091C00085FFC9
:107B8000FCCF7092C6008091C00085FFFCCF609250
:107B9000C6008091C00085FFFCCF5092C600809146
:107BA000C00085FFFCCF4092C6008091C00085FFD9
:107BB000FCCF3092C6008091C00085FFFCCFB09210
:107BC000C60088CF0E94763C863808F4BDCF0E945C
:107BD000763C0E94F33C7ECF0E94763C803809F4CC
:107BE0009CC0813809F40BC1823809F43CC1883942
:107BF00009F48FC080E00E94C73C6CCF84E10E94F2
:107C0000BD3C0E94F33C66CF85E00E94BD3C0E94D3
:107C1000F33C60CF0E94763C809306010E94763C44
:107C2000809307010E94F33C55CF0E94763C80333D
:107C300009F41DC183E00E94BD3C80E00E94C73C66
:107C400049CF0E94763C809309020E94763C809343
:107C5000080280910C028E7F80930C020E94763C79
:107C6000853409F415C18091080290910902892B8D
:107C700089F000E010E00E94763CF801E85FFE4FDA
:107C800080830F5F1F4F80910802909109020817AF
:107C9000190788F30E94763C803209F045CF809125
:107CA0000C0280FF01C16091060170910701660F0F
:107CB000771F7093070160930601A0910802B091AD
:107CC00009021097C9F0E8E0F1E09B01AD014E0F09
:107CD0005F1FF999FECF32BD21BD819180BDFA9A17
:107CE000F99A2F5F3F4FE417F50799F76A0F7B1F4B
:107CF00070930701609306018091C00085FFFCCF5F
:107D0000F092C6008091C00085FFFCCFB092C60003
:107D1000E1CE83E00E94C73CDDCE82E00E94C73CFA
:107D2000D9CE0E94763C809309020E94763C8093D3
:107D300008028091060190910701880F991F909386
:107D40000701809306010E94763C853409F4A6C0A1
:107D500080910C028E7F80930C020E94763C8032D0
:107D600009F0B8CE8091C00085FFFCCFF092C6002C
:107D7000609108027091090261157105B9F140E046
:107D800050E080910C02A82FA170B82FB27011C0E2
:107D9000BB2309F45CC0E0910601F0910701319624
:107DA000F0930701E09306014F5F5F4F46175707B7
:107DB000E8F4AA2369F3F999FECF209106013091E6
:107DC000070132BD21BDF89A90B58091C00085FFB2
:107DD000FCCF9093C6002F5F3F4F30930701209355
:107DE00006014F5F5F4F4617570718F38091C00099
:107DF00085FDE5CE8091C00085FFF8CFE0CE81E023
:107E00000E94C73C67CE0E94763C803209F08CCE3F
:107E10008091C00085FFFCCFF092C6008091C00029
:107E200085FFFCCFE092C6008091C00085FFFCCFAB
:107E3000D092C6008091C00085FFFCCFC092C600E2
:107E40008091C00085FFFCCFB092C60043CEE09188
:107E50000601F091070194918091C00085FFFCCF4D
:107E60009093C6009CCF80E10E94C73C33CE0E9415
:107E7000763C0E94763C182F0E94763C112309F430
:107E800083C0113009F484C08FE00E94C73C22CE29
:107E900080910C02816080930C02E5CE80910C02EF
:107EA000816080930C0259CF809107018823880F4D
:107EB000880B8A2180930B02809106019091070123
:107EC000880F991F90930701809306018091080203
:107ED00080FF09C080910802909109020196909359
:107EE000090280930802F894F999FECF1127E091D6
:107EF0000601F0910701C8E0D1E08091080290915D
:107F00000902103091F40091570001700130D9F34B
:107F100003E000935700E89500915700017001308D
:107F2000D9F301E100935700E89509901990009169
:107F3000570001700130D9F301E000935700E89534
:107F40001395103498F011270091570001700130FB
:107F5000D9F305E000935700E895009157000170B0
:107F60000130D9F301E100935700E895329602976A
:107F700009F0C7CF103011F00296E5CF112480919F
:107F8000C00085FFB9CEBCCE8EE10E94C73CA2CD19
:0E7F900085E90E94C73C9ECDF894FFCF80008B
:00000001FF
